:020000040000FA
:10000000E8A10520A93E000079B90000953E000056
:10001000953E0000953E0000953E0000953E000094
:10002000000000000000000000000000514000003F
:10003000953E000000000000F93F0000953E0000E2
:100040002542000025420000254200002542000014
:100050002542000025420000254200002542000004
:1000600025420000254200002542000025420000F4
:1000700025420000254200002542000025420000E4
:1000800025420000254200002542000025420000D4
:1000900025420000254200002542000025420000C4
:1000A00025420000254200002542000025420000B4
:1000B00025420000254200002542000025420000A4
:1000C0002542000025420000254200002542000094
:1000D0002542000025420000254200002542000084
:1000E0002542000025420000254200002542000074
:1000F0002542000025420000254200002542000064
:100100002542000025420000254200002542000053
:100110002542000025420000254200002542000043
:100120002542000025420000254200002542000033
:100130002542000025420000254200002542000023
:100140002542000025420000254200002542000013
:100150002542000053B94AB9002908BF00281CBF36
:100160004FF0FF314FF0FF3000F00CB8ADF1080C4C
:100170006DE904CE00F008F8DDF804E0DDE90223C3
:1001800004B07047704700BF2DE9F04786468C46A3
:100190000846089E154674461946002B40F0C1805B
:1001A0008542B2FA82F245D94AB1C2F1200300FA7F
:1001B00002FC954094402EFA03F343EA0C0C4FEAFC
:1001C000154EA8B2230CBCFBFEF80EFB18CC08FBA6
:1001D00000F943EA0C43994528D9EB1808F1FF3799
:1001E00004D2994502D9A8F102072B44A3EB0903D5
:1001F000A4B2B3FBFEFC0EFB1C330CFB00F044EA84
:100200000344A04214D92C190CF1FF3304D2A042AC
:1002100002D9ACF102032C44241A43EA07401EB170
:10022000D440002334607360BDE8F0874746DDE7C3
:100230006346F1E792BB431B01214FEA154EAFB273
:10024000200CB3FBFEFC0EFB1C330CFB07F840EA52
:100250000343984561D9EB180CF1FF3004D298455F
:1002600002D9ACF102002B44A3EB0803A4B2B3FB08
:10027000FEFC0EFB1C330CFB07F744EA0344A742C9
:100280004DD92C190CF1FF3304D2A74202D9ACF19D
:1002900002032C44E41B43EA0040C0E7C2F1200300
:1002A0009540944020FA03F12EFA03F34FEA154EDD
:1002B0009040AFB20343B1FBFEFC0EFB1C10190CC7
:1002C0000CFB07F841EA0041884522D969180CF176
:1002D000FF3004D2884502D9ACF102002944A1EBD9
:1002E00008019BB2B1FBFEFC0EFB1C110CFB07F7D7
:1002F00043EA01439F420ED9EB180CF1FF3104D2BF
:100300009F4202D9ACF102012B44DB1B41EA0041C0
:1003100093E76046E3E76146F7E76046A4E7634694
:10032000B8E7834206D916B9002108467CE7C6E93A
:1003300000E0F9E7B3FA83F78FB9834201D372453E
:1003400008D8BEEB020460EB030301209C461EB9F3
:10035000002169E73846FAE7C6E9004CF8E7C7F13B
:10036000200CBB400EFA07F522FA0CF42EFA0CF121
:10037000BA401C4320FA0CF3B8404FEA1449014339
:100380001FFA84FEB3FBF9F809FB18300B0C08FBCD
:100390000EFA43EA00439A4540D9E31808F1FF30CA
:1003A00004D29A4502D9A8F102002344A3EB0A0320
:1003B00089B2B3FBF9F809FB183308FB0EFE41EADA
:1003C00003418E452CD9611808F1FF3304D28E45C4
:1003D00002D9A8F10203214443EA0040A1EB0E0137
:1003E000A0FB02984145CE46434602D306D14D4577
:1003F00004D20138B9EB020E68EB0403002EA7D03B
:10040000B5EB0E0261EB030101FA0CFC22FA07F3D3
:10041000F9404CEA0303C6E9003199E74046C5E7D5
:100420004346D9E7F0B5424B424A85B0C2F80036A0
:10043000C2F80436C2F80836C2F80C36C2F81036D4
:10044000C2F81436C2F81836C2F81C3602F58052CB
:10045000C2F80036C2F80436C2F80836C2F80C36C4
:10046000C2F81036C2F81436C2F81836C2F81C3674
:1004700000F086F8304C20460DF01CFD00B32569D5
:10048000A6682B680D2143F400532B602046336887
:100490002A4A98472046736801A9984720B92A68D4
:1004A000019B53409A040BD54FF05023D3F80034EE
:1004B0000BB1DB0704D502F02DFF214803F030FB20
:1004C00001A800F05BFF1F4B1B68834200D0FEE7D2
:1004D0004FF48031002006F0F3FD044600B1FEE742
:1004E00006F0CCFE69469DF808000AF0E6F9009B8C
:1004F000039D1D44019B1E8906F0CAFDAF1901F042
:1005000029FF00F067FF00F049FF03F00FFD84F3BF
:100510000B8884F30A88AB5983F3088884F3148822
:10052000BFF36F8FBFF36F8F7B689847FEE700BF05
:100530003546526E00800150F8E6000011000100BF
:1005400008EA00008027002021B1012906D06FF0C1
:1005500015007047044B53F830007047024B03EB13
:10056000C0035868704700BF10EA000004289ABF13
:10057000024B18566FF01500704700BF6AEF00007D
:100580004FF4C051014807F041BB00BF3E46012077
:100590002DE9F04706460F4690461C46124DDFF8FF
:1005A0004CA0554511D30A2120460DF06AFC0222C9
:1005B00020460F490DF058FC082120460DF03BFC69
:1005C0000A2120460DF065FC0BE055F8049BB9F1BB
:1005D000000FE6D02346424639463046C847082831
:1005E000DFD00020BDE8F087B0F70000B4F70000CE
:1005F0006FEF000037B51D4683883F2B2ED103785F
:1006000003F00703022B29D1C4793CBB092001A9BF
:1006100001F07CFB00281FDB0198214682680AF06C
:100620009AFF044601980AF06BFF003C18BF0124B2
:100630000A2128460DF025FC0222094928460DF022
:1006400013FC214628460DF0F6FB0A2128460DF042
:1006500020FC204603B030BD0124E9E70824F8E778
:100660006FEF00002DE9F04FDFF8C0B1F9B038A806
:10067000DDE9848916461C46869FDBF800500CF0A5
:1006800079FE002138A807F0F7FBB8F1000F07D07A
:10069000B9F1000F04DD4A46414638A80CF073FE5C
:1006A0004FF0000833897289D6F80CA013449A449D
:1006B000C24544D80DA938A80CF0A4FE27B12022C9
:1006C00038460DA90BF0BBF90023224600933146B2
:1006D0004FF6FF7307A80AF011F9804660BB204669
:1006E0000C9E0AF0B7F9864226D84FF0FF37DFF8A4
:1006F00040910DF1160305AA06A907A80AF04CF9C6
:10070000002819DB40F08A80BDF81660102E2ED12B
:10071000BDF81460202E0FD133462046069938AA22
:100720000AF0EFFE40B9324638A90DA80AF080F968
:10073000404B1B68834217D0DBF8005071E0839B6D
:10074000AAEB0809994528BF994641464B462046E1
:10075000829A0AF0D6FE0028EED14A46829938A83D
:100760000CF011FEC844A3E74FF00108C1E7012EC9
:1007700035D1BDF81430202BDED82046069938AA92
:100780000AF0BFFE07460028D6D19DF814A0BAF1A2
:10079000200F02D94FF0FF37ABE7D9F80030264ED3
:1007A0000393039B9F42F5DA1DA80CF0E3FD0021A3
:1007B0001DA807F061FB72681DA8126856F8081B97
:1007C0000CF0E1FD15A91DA80CF01CFE524638A93D
:1007D00015A80BF00DF900288BD00137E1E7202E8A
:1007E00087D17B1C85D0D9F80030BB42D2DDBDF863
:1007F0001430B3F5807F9FD12046069938AA0AF0BD
:1008000080FE002898D1FFB23146BDF81430009721
:1008100038AA0DA800F012F80546BBE7B8F1000FA2
:100820008AD0284679B0BDE8F08F00BFB8200020FC
:1008300020EA00008027002024EA00002DE9F04F84
:10084000DFF8D4A1ADF5417D07462AA81E469DF8E4
:1008500028B389469046DAF800500CF044FD09228E
:1008600001212AA807F084FA6C4B80AA53F83B4078
:1008700003EBCB035B6805941B6805A81C44214669
:1008800030230BF08DFD002840F0BE80059B809A40
:1008900013449C4240F0B88021462CAA05A80BF0D6
:1008A00093FD002840F0B0800DF1B80B5A46214668
:1008B00005A80BF089FD0390002840F0A5802CA826
:1008C0000CF0A0F8059A2B90944240F09D80039B79
:1008D000CDF804B01A4600932CA92AA80CF0C0FC4D
:1008E000002840F091802AA807F058FA002840F02C
:1008F0008B802CA80CF086F82B902AA80CF0FDFC1D
:10090000864240F08180B6F5807FDAF800507BD1D6
:10091000B9F1200F78D1414680AA2AA807F064FADD
:100920000446002870D19DF8FF32BC2B6CD1DF2625
:1009300006900DF590790FA80CF01CFD00210FA872
:1009400007F09AFA20220DF2DF210FA80CF01BFD10
:10095000042206A90FA80CF016FD07A90FA80CF099
:1009600051FD202EB046A8BF4FF020089DF81B3047
:1009700048460133424607A9A6EB08068DF81B300E
:100980000BF05DF8002EC144D5DC48AB18460021C1
:100990009C4680AA067812F801EB013186EA0E0621
:1009A000DF2900F8016BF5D11A7802F07F021A7086
:1009B00013F8016B46BB0134BE2CF9D19CF8BE3054
:1009C000012B21D10FA80CF0D5FC31460FA807F060
:1009D00053FA082212490FA80CF0D5FC3946202200
:1009E0000FA80CF0D0FC20220DF2DF110FA80CF0A4
:1009F000CAFC07A90FA80CF005FD20220DF2DF218B
:100A000007A80AF015F805462AA80CF078FC284635
:100A10000DF5417DBDE8F08FB820002024EA0000EC
:100A200072EF0000034637B54FF40062084693F8B2
:100A3000B84013490192620051F82250A8420ED1E9
:100A4000582101FB043201FB0434526A283401A905
:100A500001F084F908B9019B236003B030BD013275
:100A600051F82220904208D1582101FB043201FBA9
:100A70000433126D03F15404E9E70120EDE700BFF0
:100A80002CEA000070B590F8B850104E6D0056F882
:100A900025100446FFF7C6FF98B9013556F8251012
:100AA0002046FFF7BFFF054668B9582294F8B830D2
:100AB00002FB0343186A0AF062FDC4F8B40028463A
:100AC00070BD0125FBE70925F9E700BF2CEA00000E
:100AD0002DE9F04F564B89B0044690F8B8000E4609
:100AE0001D68FFF731FD06A98046C0B201F00EF97E
:100AF00000286FD194F8B87031463846FFF724FDCE
:100B00004FF02C0907A9C0B209FB06F901F0FEF865
:100B1000002845D04FF0580B2C220BFB07F302FBAB
:100B2000063323441B6913F0100A4ED1314694F862
:100B3000B80006F0ABFB05463E4B1B68984212D14D
:100B40004FF4807307FB0B920193CDE903AA3A4B54
:100B5000CDF808A000935046069B94F8B8102244A4
:100B6000FFF780FD05462C234FF0580C73430CFB18
:100B700007373249E219E75906988F420AD1D168FE
:100B80001289521806D281688A4203D22C4A12680E
:100B9000AA4223D0CEB1002182680AF0DCFC14E026
:100BA00007980AF0F3FC054607980AF0A9FC5823B9
:100BB00094F8B82002FB039323445A1E033312F81F
:100BC000011FA942A6D19A42F9D11E4B1D68069871
:100BD0000AF096FC284609B0BDE8F08F94F8B820DA
:100BE000194901EBC20149688845F0D10CFB02F2BA
:100BF000A1180E6A00211344234407911989042384
:100C000007AA19440AF07DFC0028DED194F8B83018
:100C10000799012B0BBF0D4AD6E901234FF08273D0
:100C20009B18914201D39942D1D90698B3E700BFEE
:100C3000B8200020B02000203E5E01203DB8F39691
:100C400080270020B42000202CEA0000008800014A
:100C50002DE9F84F884691469A460026DFF88CB079
:100C6000234D244C0B9B9E4201D300200FE00B9B95
:100C700040469F1BB7F5806F28BF4FF480671B4A23
:100C80003B4606EB0A010AF03CFC10B10120BDE82E
:100C9000F88F0A993B465A46484671180AF046FCB6
:100CA0000028F3D1144BC5F800463E44C5F804466D
:100CB000C5F80846C5F80C46C5F81046C5F81446F0
:100CC000C5F81846C5F81C46C3F80046C3F80446E4
:100CD000C3F80846C3F80C46C3F81046C3F81446D8
:100CE000C3F81846C3F81C46BCE700BF84270120A0
:100CF000008001503546526E009001502DE9F04FB2
:100D0000002604460D46B0465827DFF80492DFF867
:100D100004A295B0012E84F8B8601DD900267E4F3C
:100D200017F8011B01290CD13046FFF70DFC0EA965
:100D3000C0B200F0EBFF014618B90E9882680AF0C5
:100D40000AFC002E00F0D780B8F1000F00F05581AA
:100D5000002058262C27D6E0A31993F8B9100029B3
:100D60004ED107FB064309EB86325A620AEB863204
:100D700030461A65FFF7E8FB94F8B810C0B207FBDD
:100D80000141203100F0C2FF60B901213046FFF778
:100D9000DBFB94F8B810C0B207FB01414C3100F006
:100DA000B5FF00B1FEE72046FFF76CFE00BB002256
:100DB0002046114609F050FE834690B9204609F0BE
:100DC000ACFE70B10AA809F076FE09F07DFE064679
:100DD00060BB94F8B830C3B9002120460AAA09F0D4
:100DE0003BFE012294F8B830234483F8B02007E09A
:100DF000012294F8B8309042234483F8B020D6D131
:100E000094F8B8600136F6B284E794F8B020042A6A
:100E100004BF012284F8B020012BDDD094F8B1305A
:100E2000042BD9D1012384F8B130D5E79DF82F30B8
:100E3000012B4ED1582294F8B830CDF838B002FBCF
:100E40000343364AD96AD86C91422BD1998E042338
:100E50000EAA19440AF055FBF8B14FF0050B94F8AF
:100E6000B830234483F8B0B094F8B8306BB1E218CE
:100E700092F8B020012AC3D0042A0CD094F8B020F4
:100E8000042A02D1012284F8B020234493F8B03020
:100E9000023B022BB4D8B046B2E7022194F8B83036
:100EA0001D4AD15494F8B80006F09AFA831E022B1A
:100EB0008346D4D801212046FFF70AFE184B1B6851
:100EC0009842CCD0174B1B689842C6D14FF0010B0B
:100ED000C5E701212046FFF7FBFD114B1B68984237
:100EE00018BF052294F8B83008BF9DF82F2023447E
:100EF00083F8B020B8E7012612E7231893F8B92049
:100F000092B10130C0B2012884F8B800F5D974E07C
:100F100084A70020842700203E5F01203DB8F3967F
:100F200080270020B420002093F8B08008F0FB0850
:100F3000B8F1010818BF4FF001084146FFF704FB64
:100F400005A9C0B200F0E2FE002870D107FB08F14D
:100F500094F8B830059A03FB06110123214400934D
:100F60000EA8402309F0CAFC8046002861D1002366
:100F70000DF1120206A90EA809F00EFD00283CDBB7
:100F8000059863D1BDF812300C2B5DD1069907AAE4
:100F90000AF0B7FA002862D19DF81C30012B61D805
:100FA000E21892F8B0207343023A022A8CBF002262
:100FB000012207FB02332344197D9DF82020914232
:100FC000D5D80AD3597D9DF821209142CFD804D39A
:100FD000DA8ABDF822309A42C9D294F8B83005981E
:100FE000234493F8B020012A1FD0023A012A02D8E4
:100FF000012283F8B0200AF083FA00264FF0FF08A0
:101000005827012E84F8B8602FD90023DFF8EC822E
:10101000BB4EBC4F0E93012B84F8B83040F23081A8
:101020000E9A022A00F08781FEE70422E1E7059884
:10103000E1E705980AF064FAB8F1030FDDD140F258
:101040000113A4F8B030D8E74FF0030805980AF070
:1010500057FAB8F1000FEFD194F8B80051E74FF00C
:101060000108F3E74FF00708F0E7A21992F8B9304A
:10107000002B40F000810AA809F01DFD92F8B03065
:10108000042B8DF82F3006D8012B06D800F0AD8048
:1010900082F8B080A9E0052BF8E707FB0643194664
:1010A00030462C31DA6C0BF0BDF80128014640F0D7
:1010B0009C8094F8B800FFF747FA07A9C0B200F087
:1010C00025FE002800F099804FF000094FF0580BE2
:1010D00007980AF015FA94F8B86007A90BFB0643C5
:1010E0001B6A187800F012FE874B0EA903EBC603AB
:1010F0000026B246187900F009FE94F8B8300BFBD0
:1011000003439B6A534519D094F8B82031460BFB32
:101110000242526A079802EBCA0252680393029293
:101120000AF019FA029A039B16444E45C0F0A080BB
:10113000D4F8B460B9FBF6F906FB0966D4F8B4003C
:1011400009F078FC582394F8B82003FB0242536A54
:10115000926A1968013A03EBC2030022D3F804E053
:101160009C4672449042A3F10803F7D8DCF80030A3
:101170000798591A0AF0EFF900232046079A0E99AA
:1011800001960093FFF764FD78BB079806F0B2F86C
:1011900058BB4FF0580994F8B800324609FB004399
:1011A000196A0BF04DF80146F8B994F8B8300E986A
:1011B00009FB03431B6D5A680AF0CDF994F8B83067
:1011C00009FB0343D3E91423013B52F8331002EB2C
:1011D000C30013684268C91A0E980AF0BCF9079850
:1011E0000AF08EF90E980AF08BF994F8B83023447F
:1011F00093F8B030FF2B3ED1FEE794F8B830079853
:1012000007FB03439E8E9B6B0EAA1E4431460423AC
:101210000AF077F900287FF457AF94F8B830BDF89A
:10122000382007FB0343B3F836A046F608139A426A
:10123000079819D1BDF83A309A457FF445AF042399
:101240000EAA0AEB06010AF05CF900287FF43CAF15
:1012500046F60713BDF838209A427FF435AFBDF843
:101260003A90D144B14431E7BAF1000FF0D02BE706
:101270000AF1010A46E794F8B8600136F6B2C0E612
:10128000234493F8B9208DF81C209DF81C1001F020
:10129000FF0239B10E9B01330E9394F8B83001333D
:1012A000DBB2B8E693F8B030012B15D011462046DA
:1012B00009F0D2FB80B1D8F80050102200210AA812
:1012C0000AF0C8FB58260023012B84F8B8301DD93A
:1012D000284615B0BDE8F08F00212046FFF7F8FB47
:1012E00033688342E7D1D8F800209A42E3D03A68C5
:1012F0009A42CFD1DFE784F8B82039E0B820002047
:1013000080270020B42000202CEA0000E21892F888
:10131000B9205AB906FB0343D86C0AF0F1F894F8E7
:10132000B83006FB0343186A0AF0EAF894F8B830BC
:101330000133DBB2C8E794F8B93023B194F8BA307E
:10134000002BD8D10123582684F8B83006FB03437C
:10135000186A09F0B8FA287194F8B83006FB03430C
:101360001B6A5B68AB6094F8B83003FB06462E60DE
:10137000014B1D68A1E700BF8027002038B5064D4E
:101380000446BC22002128460AF064FB2146284678
:10139000FFF7B4FC38BD00BF842B0120BFF36F8F73
:1013A00072B600234FF0FF30094A03F120010133E8
:1013B000102B42F82100F8D100234FF0FF30044AEF
:1013C00003F160010133102B42F82100F8D170477E
:1013D00000E100E038B501224FF0FF3400251A4B40
:1013E00029465A60C3F84843C3F8084303F58053BD
:1013F0005A60C3F84843C3F80843A3F55043C3F801
:1014000000558022C3F8084310480AF023FB8022CD
:1014100029460F480AF01EFB0E4B8022C3F80055E8
:101420002946C3F808430C480AF014FB80222946D9
:101430000A480AF00FFB0A4BC3F808454FF0502347
:10144000C3F8084338BD00BF004001508080005001
:10145000808100500090005080900050809100509A
:10146000007001502DE9F043079D15B9156000206B
:1014700012E00324B5FBF4F404EB4407BD4218BFAB
:101480000134B4F1804F09D2A40001348C4200D859
:1014900038B96FF00B001460BDE8F0834FF0FF34F3
:1014A000F7E704460021DFF8B4E0B94203F1030C8A
:1014B00004F104062BD3A942274623D201F1010CE3
:1014C000AC451F7828BF002324494FEAA70E38BF38
:1014D0005B7811F80EE0AC4584F800E001EB131ED8
:1014E0002EBF3D239B0003F03C034FEA071738BF94
:1014F000CB5C07F030071EF80770A3703D236770C0
:101500003746E3700023381A10603B70AFE71CF8D1
:10151000034C1CF8023C4FEAA4091EF80990240170
:101520001CF8018C04F0300406F8049C0EEB13192F
:1015300019F804409B0006F8034C03F03C030EEB43
:101540009814E35C08F03F0806F8023C1EF80830E7
:10155000344606F8013C03316346A6E708F1000073
:101560002DE9F04300273C463D46DDF81CE0DFF85E
:10157000288175451FD3E4BB00201460BDE8F083CB
:101580000136764533D013F806C0BCF1200FF7D0F2
:10159000AEEB0609B9F1010FA6EB05050DD0BCF1C4
:1015A0000D0F0AD103EB060999F80190B9F10A0F62
:1015B0006ED1751CDDE72E46E3E7BCF10A0FF8D0CB
:1015C0002DB9BCF13D0F05D10137022F0DD96FF0B8
:1015D0001500D3E71CF0800FF9D118F80C507F2DBF
:1015E000F5D03F2D01D8002FF1D10134E1E7354688
:1015F000C1E74FF0060C04F00706E4080CFB06F602
:101600000CFB04F40736E41B04EBD60470B18C42E7
:101610000CD80027014603263C46DFF87CE0DFF8C3
:101620007C801D449D4205D10C1AA5E76FF00B008C
:101630001460A3E713F8019BA9F10A0C5FFA8CFC74
:10164000BCF1160F04D848FA0CFC1CF0010FE9D0CD
:101650001EF809C00134BCF1400F08BF013E0CF078
:101660003F0C042C4CEA8717DCD17EB13C0C012ED8
:101670000C7002D101310024D4E7022E4FEA172466
:101680004C7016BF8F7002310331F4E73446C9E75E
:10169000002DA2D09BE700BF88F00000F6FFBFFF3F
:1016A0002DE9F047058B04462807904611D40229FE
:1016B00005F0070540F0CD80204609F052FD78B1D5
:1016C0000138218B042811D8DFE800F0C3106D85A4
:1016D000950001290CBF45F0100545F02005258334
:1016E00088F31188BFF36F8FBDE8F08701F0070A18
:1016F000AA4500F0A6800027B9463E46A368002B05
:1017000000F0BD8041F00801218388F31188BFF308
:101710006F8FA168002900F0BB800D68002900F0E0
:10172000B780334652462046D1F80480C047002D8A
:1017300076D02B6829461D46F0E701F007035A1FB3
:10174000012A1BD8002221F00701062B276889B245
:10175000C4E9002209D13B4603E0628B0132628377
:101760001B68002BF9D141F002012046218309F0CA
:10177000F8FC00287BD041F0200177E0042B0AD14F
:1017800021F0070189B22046218309F0EAFC10B15B
:1017900041F020012183218B01F0070AAA4550D096
:1017A0000027B946AAE7236921F0070141F00601A5
:1017B000062DD3F8009021832DD1B9F1000F40D030
:1017C00041F00801218388F31188BFF36F8F204611
:1017D0003949C84729E021F00701236941F0040194
:1017E00089B2042DD3F804902183E6D000274FF06E
:1017F000040A3E4682E721F00701236941F0050112
:1018000089B2052DD3F808902183D6D000274FF058
:10181000050A3E4672E700274FF0060A3E466DE78E
:101820002B4687E7B9F1000FD1D14FF02003EFF33A
:10183000118883F31288BFF36F8F238B23F0080383
:101840002383258BEA062ED525F01003238305F08C
:1018500007056669218B002EBFF66FAF002327684E
:10186000C4E9003321F0070141F001012183218BFC
:101870004FF0000901F0070AAA457FF43FAF002F9F
:101880009BD041F00801218388F31188BFF36F8F4B
:10189000002FC7D03D68394633465246204609F0EE
:1018A0008CFC2F46F4E7AB067FF51AAF25F020033A
:1018B000238305F00705FFE6E7B100002DE9F04FAF
:1018C00082464FF000098DB01D46531E01910393CF
:1018D000039B58785C1C252819D100204FF0FF3855
:1018E0001E46444603460236029031780396392953
:1018F00055D81F2914D8002900F0EF81019925201F
:10190000D04701993078D04709F10209E0E7002873
:1019100000F0E3810199D04709F101090394D7E769
:10192000A1F12002192AE9D801A757F822F000BF37
:1019300099190000FD180000FD1800009919000019
:10194000FD180000191A0000FD180000FD18000025
:10195000FD180000FD180000651A0000991900002C
:10196000FD180000791A0000251A0000FD1800007B
:10197000331A0000531A0000531A0000531A0000D3
:10198000531A0000531A0000531A0000531A0000A3
:10199000531A0000531A000008460136A5E75829DB
:1019A00000F0EB80A1F16302D7B2172FA6D8172A57
:1019B000A4D801A757F822F0211C00009F1A0000AC
:1019C000FD180000FD180000FD1800007F1A00003F
:1019D0009F1A0000FD180000FD1800007F1A00008B
:1019E000FD180000FD180000FD180000551B000048
:1019F000FD180000FD180000F51B0000FD18000098
:101A00009F1A0000FD180000FD180000551B000083
:101A1000FD1800007F1A000025200199D04709F128
:101A2000010955E7029A4FF0000802F0FE02029207
:101A3000B3E7002C0DDAB8F1000F0DDA029A002A94
:101A400000F043810A2224EAE47402FB0414303CCF
:101A5000A3E7B8F1000FF5DB0A2202FB0812A2F19E
:101A600030089AE7B8F1000F55F8042B80F22F8167
:101A7000002A80F22E815442022202928DE76829C8
:101A800003D1682B06D1482387E76C2902D16C2B40
:101A900000F02181002B7FF431AF0B467DE77A2BDC
:101AA00006D1752955F8046B14D14FF0000B0CE0EA
:101AB0006C2BF6D04C2BF4D1073525F00703752994
:101AC00003F10805D3E9006B06D120283BD1854FEF
:101AD000013C09E04FEAE67BBBF1000FF5DA764204
:101AE000814F6BEB4B0B013C0DF12D030593002354
:101AF0000493304659460A220023FEF72BFB059B30
:101B0000B446303203F8012D5A460593049BBCF1CC
:101B10000A0F8B4672F1000203F1FF310646049171
:101B2000E7D2C3F1010B30330DEB0306B8F1000F20
:101B3000A6F104066DDA029BD9077DD4A8EB0B034E
:101B4000A4EB0B0413E02B280ABF684F684F04F185
:101B5000FF34C9E770290FD155F8042B0023FAB9D7
:101B60006FF004034FF0050B614F624E053C029A83
:101B7000920770D4A04666E078216C2B03D1002335
:101B800055F8042B08E04C2BF9D1073525F0070355
:101B90001D465B6855F8082B232825D1880621D5DA
:101BA000554F023C002601F06001A1F1390B0DF107
:101BB0002D0E02F00F01092988BF594430310EF86B
:101BC000011D102A4FEA121141EA03714FEA131C5A
:101BD00073F1000306F1FF3008D2C6F1010B06F1E4
:101BE0003003A1E7454FDCE7414FDBE706460A46F5
:101BF0006346DEE755F8046B304609F0F2FEB8F1B3
:101C0000000F834602DB4045A8BFC3464FF00008E3
:101C1000374FA8EB0B03002B92DDA4EB0804A6E7DB
:101C200055F8043B4FF0010B8DF81830304F4FF052
:101C3000FF33013C06AE9AE7A046EAE70293202074
:101C40000199D047029BB8F10108F7D524EAE47264
:101C5000013C9144A41AB84606E00493029201990B
:101C6000D047029A049B9046424612F8010B002886
:101C7000F3D11A46013A15D5002BACBFC7EB0307C9
:101C80007F425B46013B15D5BBF1000FA8BF5F4407
:101C900026464F44013E14D5002CA8BF3F1907EB40
:101CA000080915E60493029230200199D047049B5D
:101CB000029ADFE70293019916F8010BD047029BC5
:101CC000E0E701992020D047E4E70122D5E69046DD
:101CD00063E6144661E64C235FE648460DB0BDE876
:101CE000F08F00BF4AF1000048F100004CF1000005
:101CF000D5F1000054F100004EF1000051F1000058
:101D0000014B03600020704740EA000070B5114BA2
:101D10000D461C68DCB1104B196800238B4202DBB6
:101D20006FF0010070BD224612F8106B864202D09F
:101D300014460133F2E7E06810B96FF01200F1E7E2
:101D40000CF0B8F80028F8D000202C60EAE76FF01B
:101D50000C00E7E7142100208CEA000070B588B081
:101D600005460C46C0B269461646FFF7CFFF00286D
:101D70001BDB0098C8B14368226802938368019511
:101D8000CDE903360023CDE906230593C56809F0A4
:101D9000B7FB6DB12846084901AA0AF07DF80798FB
:101DA00008B9059B236008B070BD6FF01500FAE715
:101DB0006FF01200F7E700BF9BB50000F0B40C4BCA
:101DC0000C4E5F6A0C4BB34203D36FF08500F0BC3E
:101DD00070475D68BD4209D31C693CB195F802C0EB
:101DE0000579AC4502D12346F0BC18472433EAE715
:101DF000402C0120A02400207C2400202DE9F04765
:101E000005460E461746124CDFF84880DFF848902A
:101E1000444503D36FF08500BDE8F0876268D9F8C8
:101E200024309A4212D3A36983B1907829798842E9
:101E300005D13A4631462846BDE8F0471847527961
:101E4000012A03D13A463146284698472434DFE731
:101E50007C240020A0240020402C01202DE9F0410A
:101E600005460E4617460A4CDFF82880444502D343
:101E70006FF0850009E063690BB92434F6E73A4650
:101E80003146284698470028F7D1BDE8F08100BFC9
:101E90007C240020A024002010B5044609F021FE77
:101EA00010F1780F00D050B9204609F098FB044A91
:101EB000D2F8C43023EA00030020C2F8C43010BDB9
:101EC000402C012008220021014809F0C3BD00BFB9
:101ED000FB2C012070B50B4B0B4CA34201D300200F
:101EE00070BD0022196A1E7F0439D5B2AE4201D8F6
:101EF0002433F2E7013211F832508542F5D1012046
:101F0000EEE700BF7C240020A024002008B509488B
:101F10000378C3F341130A3350F823303BB100F187
:101F2000080200F110019847C043C00F08BD1846D1
:101F3000FCE700BF402C012004282DE9F14F0446A6
:101F40000F46DFF8949016D001282DD1DFF88C8051
:101F500098F8B93043B300F00BFE214D4D4520D227
:101F60004FF0000AD5F820B02B7F5FFA8AF6B34213
:101F700004D82435F2E7FFF7A5FFE7E70BEBC60629
:101F8000307909F0AEFD0246307909F028FBD8F827
:101F9000C430002A23EA0003C8F8C4300AF1010A59
:101FA000E2DA002388F8B9300D4D4D4508D30B4BCC
:101FB0001B6A6BB13946204601B0BDE8F04F1847A7
:101FC000EB681BB13A462146284698472435ECE792
:101FD00001B0BDE8F08F00BFA0240020402C0120FC
:101FE0007C24002073B5C4B263060D468DF807400B
:101FF00007D02046FFF76EFF78B10D4B93F8BA007B
:1020000058B120460A4E55B102F0BEFFF3691BB12C
:1020100008200DF107019847012002B070BD02F0C1
:10202000DBFFF369002BF7D009200DF10701F2E780
:10203000402C012073B586781E4C8DF80060037922
:10204000427943EA0223ADF80230C378304603F008
:1020500003038DF8043009F0C2FAD4F8C430054601
:1020600018420BD0304600F065FD3046FFF714FFF4
:102070000BF085FF10B9962008F00AF8684602F0C8
:102080005FFF10F1780F03D010B1002002B070BDD7
:102090009DF8000002F0DCFF10F1780F01D000285D
:1020A000F3D10120D4F8C43084F8B9002B43C4F82C
:1020B000C430EBE7402C01202DE9F047924D044657
:1020C000AB690E461746C3B9207800F01F000128FF
:1020D00076D0022800F0DC8000BB94F900103A684A
:1020E000002963782EDA062B0CD0082B25D0ABB94B
:1020F000537001231370022303E198470028E3D1B2
:1021000000200DE06388190A0A1F012A8C4605D9B0
:10211000072903D8DAB26B6A1C781CB96FF0150076
:10212000BDE8F0875D78654503D1824200F0E48028
:1021300001302344F0E71B78E3E095F8BA301370E0
:102140000123DEE0052B11D0092BE7D163886E6AED
:10215000002B32D1FFF7B6FE638885F8BA30EB6901
:10216000002BCDD0032069499847C9E7A07802F039
:10217000D5FE0028C4D0D1E77378042B10D0052BEE
:1021800011D0022B04D177796388BB4208BF0120AC
:1021900033781E443378002BEED10028BED0D9E727
:1021A00096F80380F4E76388BB42F1D1B8F1000FE1
:1021B000EED13046FFF73EFFEAE7FF27B846E9E7F2
:1021C00095F8BA30D7F800C0002BA7D06F6AA28864
:1021D0003B4694F804E0187800289FD059780229EB
:1021E00004D193F80480F04500F292800344F2E7B2
:1021F0008CF800308CF80130316081E71F4493E0A7
:102200000B2B8BD100264FF0FF08B246C14606E0EB
:102210007B78042B0FD0052B21D03B781F443B78D3
:10222000002BF5D1EB6913B1514607209847002EDA
:102230007FF466AF72E797F80280A38897F803905F
:102240009845EAD163889945E7D1B8F1070F1CD8C2
:1022500005EB0803BA46012683F8BB90DDE7A388A7
:102260004345DAD1A3784B450AD0BE78304600F01A
:1022700061FC3046FFF710FEB0FA80F67609CCE735
:102280003846FFF7D7FE0646C7E7BA460026C4E73A
:1022900094F900206378002A18DA002B7FF43EAF0F
:1022A00024793F6863060AD02046FFF713FE002812
:1022B0003FF434AF95F8BA30002B3FF42FAF3946D6
:1022C000204602F0A9FE00237B7014E7012B08D002
:1022D000032B7FF423AF6388002B7FF41FAF012112
:1022E00003E0618800297FF419AFA088FFF77AFE28
:1022F00000287FF405AF11E702293B607FF41BAF94
:102300005B883360FCE600BF402C0120FA2C0120E2
:1023100094F9000063780028BFF672AF002B3FF4F9
:1023200067AF0A2B7FF4FAAE3B78002B3FF4F6AE92
:10233000797804297FF462AFB9788A427FF45EAF7E
:10234000072A8EBF0023521992F8BB308CF8003058
:10235000F6E600BF70B5164D95F8B830FBB102F047
:10236000BDFD002822DB00F003FC0024D5F8C430BA
:10237000E6B2E340DA0714D4D5F8C43004F1100211
:10238000D340DB0705D546F08000FFF785FD002828
:102390000CDB0134102CE9D1002385F8B830002083
:1023A00004E03046FFF778FD0028E5DA70BD00BF95
:1023B000402C012013B5164C237DF3B9E26801AB24
:1023C0008020A168019209F019F9019AA3681344C9
:1023D000A360E3689B1AE3606BB962B12369E2888A
:1023E0009A4208DD94F8C82093FBF2F102FB113306
:1023F0000BB90123237502B010BD002380201A46BB
:102400001946237502B0BDE8104002F04BBE00BF74
:10241000402C0120002330B585B002460D460193C3
:10242000002858D1002935D108220B460DEB0201B6
:1024300009F070FB002804DA802002F0A5FD05B049
:1024400030BD2A4C029AC4E903552260039ABDF8B4
:102450000E30626004F13802A2609DF908202575F3
:10246000002A0ADB802B04D9802002F08DFD002099
:10247000E3E713B1C4E90333E1E7FFF747FD0028C1
:10248000DAD0E28823699A42D4BFE260E360FFF7C2
:1024900091FFD4E7154C01ABD4E90215002D04DC03
:1024A00009F038FB0028CADAC6E72A4609F032FBF1
:1024B0000028D9DB019AA3681344A360E3689B1A40
:1024C000E360002BBBD104F13803A360FFF71EFDCE
:1024D0000028DCD1B0E78028B1D1044BDA68002AAB
:1024E000D5D11B7D002BD2D1A9E700BF402C012004
:1024F000054B064A58629A62054A0020DA62054A8C
:102500001A63054A9A617047402C0120B9200000E7
:10251000BD1D00005D1E0000FD1D000010B5084B34
:1025200093F8B84034B900F0E3F830B1FFF7E0FFBA
:10253000204610BD6FF07700FBE74FF0FF30F8E763
:10254000402C01202DE9F341414D04466F6A4FF0C4
:10255000FF324FF0FF333F4807F024F995F8B86099
:10256000002E6ED13C482C62E86102F0B5FE02F00C
:1025700083FC041E49DB00F01FFB041E45DB7B7857
:10258000012B61D1FB79002B5ED0684685F8C830FD
:10259000ADF802308DF804608DF8006002F0D0FCD8
:1025A000041E32DB802768468DF8007002F0C8FCFC
:1025B000041E2ADB3046294902F07AFE041E24DB81
:1025C0003846264902F074FE041E1EDB244CDFF858
:1025D0009480444520D3002002F03AFD041E14DB11
:1025E000D5F8C430802043F00103C5F8C43002F0B0
:1025F0002FFD041E09DBD5F8C430002443F48033DA
:10260000C5F8C430012385F8B830124807F08EF8B9
:10261000204602B0BDE8F0810026276A227FF3B28F
:102620009A4201D82434D4E707EBC30257F8331099
:10263000107902F03DFE01360028EFD04FF0FF3454
:10264000E3E76FF07704E0E76FF01504DDE700BF24
:10265000402C012064230020391F000015240000B5
:102660007C240020A024002030B51F4B8BB005AA8D
:1026700003F11005144618685968083303C4AB42C7
:102680002246F7D11B7810222370002101A809F0FF
:10269000E1F912220021154809F0DCF9102101A806
:1026A00009F04AFC00281BDD0828B8BF082001AB50
:1026B00009381A1800200D4912F8013F0AAC04EB42
:1026C000131403F00F0328336B4414F8144C13F85D
:1026D000143C013008280C704B7001F10201EBD161
:1026E00002480BB030BD00BF5AF10000405F01202E
:1026F0002DE9F04F4FF0000B6E4C87B000264FF0E5
:10270000011AB0463546B14623782BB96A4B0234DC
:102710009C42F3D1674832E06378052B1BD8DFE891
:1027200003F08E03C68E1D3B402304A88DF810B025
:10273000ADF812308DF814B009F0BEF940B108239D
:1027400004A8ADF8123009F0B7F908B1ADF812B02D
:10275000BDF81230E37123781C44D5E7E378002BF1
:10276000F9D1A37873B108F101085FFA88F8F2E7AC
:102770006A68944209D024359D42F9D3002007B0FD
:10278000BDE8F08F4D4D4E4BF6E7AB68002BEAD01D
:10279000414620469847E6E7002DEFD000222B7FE8
:1027A0009A42EBD2296AA07801EBC2010B799842D8
:1027B00001D00132F3E70127E078FBB200F003001B
:1027C0008DF81400207994F805C040EA0C20ADF88B
:1027D000120094F90200002826DA4FF0010C07F1EC
:1027E00010000CFA00F010EA0A0F24D143F0800028
:1027F0008DF8100004A8CDE90213019209F05CF9EC
:10280000DDE90121039BB0B99DF8102012F0800F83
:10281000A2700A714FF001021DBF1033DBB29A4063
:10282000BA404AEA020A96E70120B84010EA0A0FC5
:1028300001D11846DCE70137102FBDD1B9E7032ECF
:102840001DD1FFF711FF074668B109F0CAF80190E2
:1028500048B11C4809F0C5F8019A824203D13946B3
:10286000A01C09F0ECF86FF002012378091BE218B4
:1028700004EB5303D14213D50136F6B26BE7002EB9
:10288000F1D1B9F1000F3FF479AFA4EB090389F856
:102890000230C3F3072389F8033089F80480EBE79B
:1028A00002F801BC13F8010902F8020DE2E7A146A3
:1028B00051E700BF98230020792400207C240020C9
:1028C000A02400205AF10000094B00211A4610B53F
:1028D0001C78844204D15C6814B102EB811010BDF5
:1028E0000131042903F14003F2D10020F7E700BFD2
:1028F0000C2D01202DE9F34150F8283C04461033FB
:1029000010F82C6C0AD1036950F8202C980736D5A2
:10291000D2B9590715D5002344F8283C54F8283C6F
:1029200010330BD054E9077554F8148C0BF027FBC7
:1029300000284FD021462E480BF01AFC02B0BDE80B
:10294000F08143F004032361304654F8241C01ABAA
:1029500008F054FE10B16FF01503DDE7019A54F84A
:10296000243C134444F8243C54F8203C9B1A44F87B
:10297000203C54F81C3C134444F81C3CCEE7304641
:1029800054F8241C01AB02F009FC0028E3D1019D9E
:1029900054F8243C2B4444F8243C54F8203C5B1B62
:1029A00044F8203C54F81C3C2B4444F81C3C002DBB
:1029B000B1D0304602F096FCB5FBF0F303FB1055A6
:1029C000002DA8D154F8203C002BA4D0304602F0B2
:1029D0002DFCA3E744F8180CA4F1100006F090FFBA
:1029E000002DABD0424639463046A847A6E700BF87
:1029F000A02400204B1E012B73B506460D460FD8B0
:102A0000FFF762FF044668B9012D09D101AB01222D
:102A100030460DF1030102F0C1FB019B002BF5D103
:102A200002B070BD0BF0ABFA04F12C0108B1012D1E
:102A300005D1084602B0BDE87040FFF75BBF034810
:102A400002B0BDE870400BF093BB00BFA024002093
:102A50002DE9F74F064615469846019108F014FEF9
:102A6000044600285CD14FF02003EFF3118A83F372
:102A70001288BFF36F8FDFF8B0B0002200235846F2
:102A800006F062FF70B9DFF8A490A70109EB841487
:102A9000636813F1100F14D10193584606F030FF0C
:102AA000019B06E00134042C0BF1400BE5D16FF0E3
:102AB0000B038AF31188BFF36F8F184603B0BDE88C
:102AC000F08F019B2061C4E902350C9B30466361A5
:102AD0000D9B09F80760A3616FF00F03C4F83C80F9
:102AE000636002F0FFFB58B1304602F0FBFBB5FB20
:102AF000F0F303FB10551DB1E36B43F00403E363F4
:102B000018F0020F07D007F12C01094849440BF0D7
:102B10002FFB0023CDE7304602F088FB0346C8E7D1
:102B20006FF00F03C9E700BF282D01200C2D0120F5
:102B3000A024002010B54FF02003EFF3118483F39D
:102B40001288BFF36F8FFFF7BFFE50B14368103399
:102B500007D16FF08B0300F12C01436003480BF0A9
:102B600007FB84F31188BFF36F8F10BDA0240020F2
:102B700070B504250E4C4FF02003EFF3118683F35C
:102B80001288BFF36F8F6368103307D16FF08B0328
:102B90000848636004F12C010BF0EAFA86F311880F
:102BA000BFF36F8F013D04F14004E4D170BD00BF5D
:102BB0000C2D0120A024002070B50025094C0A4EE0
:102BC000314620460BF0B7FA0122A4F1100011465D
:102BD00001350BF073FA042D04F14004F0D100200C
:102BE00070BD00BF382D0120F528000070B50446E7
:102BF0000E4601791248154608F023FDE8B194F914
:102C000000206378002A11DB202B04D0222B09D06E
:102C10006FF0850005E007222968103808F00FFFE3
:102C2000002070BD638800F8093CF9E7212BEFD143
:102C30000723103828603360F2E76FF01200F0E7E6
:102C40000C2E0120014608B5034808F007FD10B11D
:102C5000012300F8073C08BD0C2E01200123016967
:102C600081F84B300B6833B191F849301BB1024801
:102C700008310BF07DBA7047A024002001230169C0
:102C800081F84A300B6833B191F848301BB10248E3
:102C900008310BF06DBA7047A0240020012370B5F5
:102CA00082F8483013680D4614463BB192F84A301A
:102CB00023B10E4802F108010BF05AFAD4F8903013
:102CC0009A681B699A4205D17DB904F1180140F652
:102CD000CD4204E004F11801002DF8D00022BDE837
:102CE00070400023014806F07FBF70BDA024002083
:102CF00038B5056995F89E0088B195F89F307BB985
:102D000085F84830D5F8900008F077FB044600229B
:102D10000023044805F1180106F066FF204638BD7F
:102D20000020FCE7A0240020002103460C4AA0F864
:102D30004810106883F89C10C3F89400908892792A
:102D4000A3F8980083F89A2083F89B104022A3F8F8
:102D50009E1083F8A01003F14C0008F07BBE00BF6A
:102D6000F0E90000F0B5D0F88C3004465B6885B01F
:102D70001B6A1F7D384608F087FC0646F8B994F8B0
:102D80008630E3B14FF48062A06F03A908F054FBD2
:102D90000546A0B18306A4F1180384F830600193BE
:102DA000084B08BF00F1FF35039900932A46022320
:102DB0003846FFF74DFE2946A06F08F059FB05B0D5
:102DC000F0BD00BF9D2C0000002310B50469C4F8BD
:102DD000A8300C4BC4F8A400596804F1A80269B9E2
:102DE000C3E9002204F1080007490BF0A4F904F13B
:102DF000180006490BF0CDF9002010BD0A605A609A
:102E0000F0E700BF0C2E0120B3B60000652D0000D6
:102E100030B54FF400334268056942F2A10085B035
:102E2000CDE90103002385F89D30106AADF80C1040
:102E30000A22007901A908F0E1FB054C95F89D30C4
:102E400023B901200BF031F8013CF7D105B030BDBA
:102E5000A1860100002313B504698DF8071084F8DA
:102E600048300122D4F890000DF1070108F0C5FAAE
:102E700010B90BF084F840B12122002304F11801AD
:102E8000064806F0B1FE02B010BD94F8A130002B48
:102E9000F2D00021212007F0E1F8E2E7A024002091
:102EA00037B514460A1E054620DDD4F88C0004F11F
:102EB0004C0108F0A2FA012384F8493023683BB1A1
:102EC00094F84B3023B1114804F108010BF050F98C
:102ED000D4F88C104B684A699A1ACB699B1A3F2B1D
:102EE00004D8012384F8A03003B030BD94F89E309C
:102EF000002BF9D0064B4022009328460123019471
:102F000004F14C01FFF7A4FDEEE700BFA024002070
:102F1000A12E0000F7B50D4601461D4808F086FBBE
:102F2000044610B3064656F8A439691E5F680529A1
:102F30001BD8DFE801F01C1A031C222610F8061C1F
:102F400099B9012300F8063C3B6A3246187BFFF72B
:102F5000A7FF14F85C2C42B93B6A1146187D0D4B53
:102F6000019600930223FFF773FD03B0F0BD3046D6
:102F700003B0BDE8F040FFF7D7BE012304F8053CDD
:102F8000F3E710F8053C002BEFD00023F6E700BF75
:102F90000C2E01209D2C000037B50024084D4FF069
:102FA000FF334FF4806228460649009406F0E4FDA2
:102FB000054928460AF0E9FF204603B030BD00BFAE
:102FC000A0240020A868052078F10000014807F03F
:102FD00031BB00BF40EB000038B5044618B90F4BB9
:102FE0000F485B6898476168B1F5683F10D0B1F54C
:102FF000680F0DD00B4DA9420AD011F4686120680A
:1030000007D0014608480AF094FF0023236065605A
:1030100038BD142208F01EFDF9E700BF1022002081
:1030200081F100002C5F5CA91433012008B560B366
:103030004368B3F5683F0ED0B3F5680F18D0144A53
:10304000934220D000684FF0FF324FF0FF3306F07C
:10305000A9FB58B115E001220368D3E8EF1F00294E
:1030600003D1C3E8E02F0028F7D10AD1002008BD22
:103070000368084A1B7803F5807352F82330002B4D
:10308000F4D00548F3E70548F1E76FF4E040EEE7D8
:103090002C5F5CA900000350E98FFFFFEA8FFFFF60
:1030A00008B520B34368B3F5683F09D0B3F5680F9E
:1030B00013D0114A93421DD0006806F037FB14E08C
:1030C00000220368D3E8EF1F012903D1C3E8E02FF2
:1030D0000028F7D109D0094808BD00210368084A33
:1030E0001B7803F5807342F823100020F4E76FF497
:1030F000E040F1E70348EFE72C5F5CA9E98FFFFFB1
:1031000000000350EA8FFFFF10B5044618B91D4BAD
:103110001D485B6898476368B3F5683F2FD0B3F5E7
:10312000680F2CD0194A934219D1236803BB4FF082
:10313000FF324FF0FF332146154806F021FA08B957
:1031400023681BB90F4B13485B6898471422002172
:10315000206808F07FFC4FF46863636008E0B3F513
:10316000683F0DD83A2B03D040F6BA629342DED1C5
:1031700020680AF023FF636843F03A03636010BDE0
:10318000054AF3E71022002081F100002C5F5CA9C2
:1031900014330120A7F100003A00003A08B50649AF
:1031A0004023142205480AF0B6FEBDE80840044951
:1031B000044807F0B1BA00BF142E012014330120D7
:1031C00048EB00005CEB0000F7B5224E30688368E6
:1031D000DB6B03B1984730688368DB6A002B31D121
:1031E0001D4C1E4D306883681B69002B2DD00122B9
:1031F0000DF107019847012827D1236843B92B68AF
:103200001BB369681A688B422A6008BF6A60236032
:10321000134A9DF8070011887F2904D823684F1CA2
:103220000B44178018720A28DCD10020236811880B
:10323000186059600B494D684DB9C1E900331080E1
:103240002060CEE798470028CAD103B0F0BD2B60BC
:103250004B60F4E7883701203033012040330120F0
:103260003C4601203833012010B5044B0446186851
:103270008368E1B25B689847204610BD883701201B
:10328000F8B50546164608464FF02003EFF31187C0
:1032900083F31288BFF36F8F1B490B684BB11B4C34
:1032A00062689A4205D000221A60626862B9C4E975
:1032B0000033174A136853B987F31188BFF36F8F30
:1032C00018460B603360F8BD13606360F1E7D2F815
:1032D00004C01C686345146008BF546087F31188FC
:1032E000BFF36F8F5C680B60A042D8BF00F1FF3462
:1032F00003F108012246284608F0A1FB0023601CC8
:103300002B550123DEE700BF343301204033012079
:1033100038330120002337B51C462349234AC1E92D
:103320000033C2E90033224A4868146088B9C1E911
:1033300000220133082B02F18802F5D11D4D1E48F1
:1033400028600AF0B7FD38B94FF0FF34204603B0CB
:1033500030BD02604A60ECE70020FFF7F3F8044656
:103360000028F1D12868836823B11B6C13B1224671
:103370001249984728688368DB6A0BB1984748B1BF
:10338000286883681B69002BFAD001220DF1070120
:103390009847F4E700220A4B28681A8083681B6A62
:1033A000002BD3D09847D1E7403301203833012098
:1033B000483301208837012020E70000C931000090
:1033C0003C46012041F204432DE9F043ADF54F7D29
:1033D000ADF8083040F606130025ADF80C30DFF8E4
:1033E0001091444BD9F800101B68434E4D70A3EB6D
:1033F00006080B7828465A1C62F302030B7098FAF1
:1034000098F34B808B8808225BBA8B8007F0C9FB4E
:1034100031464246ADF8100007F0C3FB02271FFA01
:1034200088F440BA04F10A035BBA0222ADF8100036
:103430000DF1120106A8ADF8123008F000FB0822C9
:10344000D9F800100DF11A00ADF8127008F0F7FA73
:10345000BDF8120006AB083080B231464246ADF8E6
:103460001200184408F0EBFABDF812303A461C443A
:10347000A0B22C4606ABADF8120004A9184408F01F
:10348000DEFABDF8123040F2C9113B449BB2ADF8F0
:103490001230009305AA06AB5BA8FDF7E3FF059B7E
:1034A000164E174FADF81230BDF81230A34203DCB0
:1034B0000DF54F7DBDE8F083336802215B68A4B948
:1034C00003A89847BDF8125033682D1B7C2DA8BF68
:1034D0007C255BAA101929465B689847336801214F
:1034E00038465B682C449847DEE702A8E9E700BF4E
:1034F000EC370120A4370120525F0120F037012072
:10350000D4F100002DE9F04F4FF0FF34D5B00B4659
:10351000059406940794012100240246CDE9014454
:10352000009130A80421CDE908440AF0BFF92146F2
:10353000402220A808F08EFA904B03211C9305230B
:1035400004221D938E4B0DF1180ACDE91E3A8D4BC6
:103550008D4821938D4B05AE23938D4B07AD26935C
:103560008C4BCDE92B01CDE92835CDE92D360AACC0
:10357000279109AB1CA930A82292249408F0A4F941
:1035800020B303240A2184480AF07BFC83490222E9
:1035900081480AF069FC21467F480AF042FC4CB998
:1035A000794903227C480AF05FFC7D4B7A48196810
:1035B0000AF041FC0A2178480AF06BFCFFF702FF91
:1035C000089807F09DFF55B0BDE8F08F3368D4E947
:1035D00000875A1CD5D0B8F1000FD2D0DFF8C491C3
:1035E0003BB9DAF80020B2F1FF3F18BF1346C9F823
:1035F0000030D9F80000FCF7B9FF08A9C0B2FEF707
:1036000085FB04460028BCD13368654E002B4BD1A6
:10361000DDF820A030605046DAF808B007F00FFA65
:10362000614A0146504607F050F908B10124A9E764
:103630002B685B45A5D85D4A14605D4A136032680B
:103640005A4D3A4429680898013A08F01EF90028B2
:10365000286096DB089807F092FFB7FBF0F303FBB6
:103660001070DFF84CA13368C5B27D1B1F44DAF837
:1036700000309F4238BF00205FFA80FB089807F0B7
:103680007EFF012806D9089807F079FF013818EA6B
:10369000000F52D12B4642463168089807F046FF8A
:1036A00000287FF46EAF2CE0326893427FF46AAF5B
:1036B0003F4A3B4412689342C1D962E7AF4208983F
:1036C00088BFEFB207F062FF402201460CA808F065
:1036D000C1F93A4641460CA808F0B1F93B463168B9
:1036E00008980CAA07F022FF08B104464AE733689D
:1036F000B8443B443360ED1B089807F040FFA842F4
:10370000DCD9BBF1000F1AD13368DAF800205B4432
:103710002B44934233607FF435AF234B08981A68EB
:10372000114608F0B2F8002880DBDAF8002008998A
:10373000D9F8000008F08AFDD7E74027DCE70898B1
:1037400007F024FF082201460CA808F083F95A4626
:1037500008EB05010CA808F072F9089F316838469B
:1037600005EB010807F00BFF414603460CAA38465B
:1037700007F0DCFE00287FF404AFC5E7D6F10000B7
:1037800057DB0000DCF10000E5F1000061DB000028
:10379000E1F100005DDB0000A43701206FEF0000C5
:1037A0009C370120A0370120943701209037012059
:1037B0008C37012038B505460A4C0A2120460AF00C
:1037C00060FB0222204608490AF04EFB29462046AB
:1037D0000AF027FB20460A210AF05BFBBDE83840CF
:1037E000FFF7F0BDA43701206FEF0000F0B50C68C3
:1037F000164F85B002380D46C4F580610090144B19
:10380000381903AA0131FDF7ABFE0446D0B92B6885
:10381000039A1344022B2B6011D93E88023B76BADF
:10382000B6B29E420BD13246B91C07F0BAF930B994
:10383000022E04D92B689A1E2A60FC5401242046CB
:1038400005B0F0BD4FF0FF34F9E700BF9B600120E9
:103850009E640120002307B502210093044A4FF41F
:10386000A47304480AF017FB03B05DF804FB00BF23
:10387000525F0120A43701202DE9F04707290446B3
:10388000B0B040F20181037813F0050F40F0FC80E6
:103890004388A1F108055BBA9BB2AB42C0F0F4804B
:1038A000924B00F10807186083885BBA8380FFF7AA
:1038B000D1FFA688012E40F0F180E37943B1012BBE
:1038C00000F0E580082030B0BDE8F047FFF772BF98
:1038D000247814F00704F5D1314685480AF0D1FA6E
:1038E0000622844982480AF0BFFA052180480AF07E
:1038F000C4FADFF80482DFF804920026804F00E06B
:10390000012631462046D8F80050FCF71DFE08A9D4
:10391000C0B2FEF7FBF9824600282ED13146204680
:1039200010AA08F050FC012805D120235146089820
:1039300010AA07F0E6FD109B4B4516D131462046F4
:1039400003F0A4FC05466F4B1B6898420DD1402341
:103950000021019320AB00930846CDE90311089B99
:10396000029110AAFCF77EFE05463B68DDF820A018
:10397000AB4208D0504607F0C3FD002EC0D0002C4B
:1039800078D13446B9E700235246009310A94FF688
:10399000FF730AA806F0B2FF002850D04FF0FF35A1
:1039A000089807F0ADFD142151480AF06AFA052283
:1039B00055494F480AF058FA21464D480AF03BFA5B
:1039C000524904224A480AF04FFA314648480AF060
:1039D00032FA4DB904224E4945480AF045FA2022F0
:1039E000434818A90AF037FA07224A4940480AF022
:1039F0003BFABDF85630402101939DF85530464AB8
:103A0000009320A89DF8543000F0F4FD169B4BB1B4
:103A1000421E3E2A06D820ADC0F140013F4A28444C
:103A200000F0E8FD20A807F0DCFF20A9024630489E
:103A30000AF01AFA14212E480AF02BFA9DE70DF12C
:103A40001E0307AA09A90AA806F0A6FF0028A5D107
:103A5000BDF81E30102BF2D1BDF81C30202B9DD1AB
:103A60005046099918AA07F04CFD051E18BF0125FC
:103A70006D4295E705211E480AF007FA01211C480E
:103A80000AF007FAFFF79EFC30B0BDE8F087294640
:103A9000384630B0BDE8F047FFF734BDCEB9E37922
:103AA000012B09D0052B7FF40DAF304608F0D5FB74
:103AB000012803D10A2006E7304604E73046FFF725
:103AC00079FE4FF40050002106F0C8FA012007F0FB
:103AD00004FD2A4639462046054BFCF759FD0028CF
:103AE000D2D130B0BDE8F047FFF76CBCEC37012015
:103AF000A4370120E9F10000B82000203DB8F3967A
:103B000080270020B0200020D6F10000F0F1000056
:103B1000F5F10000FAF1000002F200000EF20000E0
:103B200001232DE9F34100250646DFF8C080304C23
:103B300088F800302F4B304F0095186098F800300F
:103B400013B902B0BDE8F0812C4BC5F58061C3F814
:103B50000046C3F80446C3F80846C3F80C46C3F849
:103B60001046C3F81446C3F81846C3F81C4603F5BC
:103B70008053C3F80046C3F80446C3F80846C3F8A8
:103B80000C46C3F81046C3F81446C3F81846C3F8E9
:103B90001C46336801AA0131781998470028019B17
:103BA00001DC002BCAD005442BB940F201439D42F1
:103BB000C4D10025C2E73B78062B09D17B78092BBD
:103BC0000BD1002300936946A81EFFF70FFE04E007
:103BD000042B02D17B78142BF5D00128E9D1009970
:103BE00007480239FFF748FEE3E700BF9A6001206B
:103BF0003546526EF03701209C6401200080015050
:103C00009D60012030BFFFF7FDBF00BF044B9968E6
:103C10005869884203D003494FF080520A607047C8
:103C20003844012004ED00E0154B9A6A12F0007F41
:103C30009A6A14BF1E201D2012F0807F9A6A18BF56
:103C40001F2012F4801F9A6A18BF022012F4002F5E
:103C50009A6A18BF212012F4802F9A6A18BF222076
:103C600012F4003F9A6A18BF232012F4803F9A6A28
:103C700018BF24206FEA02426FEA12429A6270472C
:103C800000ED00E010B5184B0246986A9C6A10F4EB
:103C9000805F14BF1720162014F4006F9C6A18BFB1
:103CA0001820A40508D5986A000404D51AB19A6AA8
:103CB00022F400429A6219200B4B9A6A12F4806F28
:103CC0009A6A18BF1A20D2050CD49B6A13F4005FBD
:103CD00018BF1C20044A936A43F47F439362002375
:103CE0000B7010BD1B20F5E700ED00E010B51C4B7C
:103CF0000246986A9C6A10F0100F14BF1120102021
:103D000014F0080F9C6A18BF1220A40709D5586B3D
:103D1000986A000604D51AB19A6A22F080029A6263
:103D200013200F4B9A6A12F0010F9A6A18BF1420E1
:103D300012F0200F9A6A18BF1520D40658BF9B6A4C
:103D4000074B9A6A920642BF5A6A22F400525A629C
:103D50009A6A42F0FF029A6200230B7010BD00BF06
:103D600000ED00E070B5444B06465B6800258AB064
:103D7000C3F3080385F31188BFF36F8F02F07F4010
:103D8000B0F17F4F11D102F00C0008280DD01007C0
:103D90004CBF0E4601250022033B8DF80720032B64
:103DA00005D8DFE803F01E5C60592E46F3E70024D7
:103DB0009DF807309BB92022314602A807F03FFE4C
:103DC000099B002D53D0C3F3080222B96FEA532395
:103DD0006FEA43230993204602A907F0C7FD0AB002
:103DE00070BD254BDA6A9107E1D4DA6A002ADEDB7E
:103DF000DA6A5200DBD55A69B16942F480725A61BD
:103E0000BFF34F8FBFF36F8F5A6931F8021C22F452
:103E100080725A61BFF34F8FBFF36F8F4DF60272FE
:103E2000914209D09A6AD2B242B101200DF1070144
:103E3000FFF75CFF0446BBE73468B9E79A6A12F4FF
:103E40007F4F05D001200DF10701FFF71BFFF1E7C0
:103E50009B6AB3F5803FAAD3FFF7E6FEEAE70020AE
:103E60000DF10701E4E700200DF10701EDE723F470
:103E7000FF7323F00103ADE700ED00E0044B5A6946
:103E800042F010025A615A6942F480625A617047E6
:103E900000ED00E0EFF30880EFF3098101B5724611
:103EA000FFF760FF01BD00BF002080F31488BFF35F
:103EB0006F8F002080F30A8880F30B8800F052FC9B
:103EC00000200E490860BFF34F8F0D4880F308882B
:103ED00000F03EF8202080F311880A484FF400617A
:103EE000401880F30988EFF314800221084380F31F
:103EF0001488BFF36F8F00F001F9000094ED00E02B
:103F0000E8A10520A8700520BFF34F8F0549064B97
:103F1000CA6802F4E0621343CB60BFF34F8F00BF67
:103F2000FDE700BF00ED00E00400FA05002318469D
:103F30000649D1F89020C2F30722934200DB704774
:103F4000C1F89830C1F8A0000133F6E700ED00E0B9
:103F500010B572B6002484F31388FFF7E7FF2346F9
:103F60004FF0FF300C4A03F120010133102B42F8CF
:103F70002100F8D100234FF0FF30074A03F1600120
:103F80000133102B42F82100F8D162B6BFF34F8FF6
:103F9000BFF36F8F10BD00BF00E100E0084B9B68CE
:103FA00083420BD1EFF3058343B1064B5A6842F0CD
:103FB00080525A605A6A22F400425A620AF003BAE6
:103FC0003844012000ED00E06FF00A01084A9368D0
:103FD0005967084918674B6843F080534B600023CA
:103FE00083F31188BFF36F8F9368586F704700BFDA
:103FF0003844012000ED00E013498A684FF030009A
:104000001044EFF3098C80E8F01F202080F3128821
:10401000BFF36F8F0D4F4FF000664A698A603E60B4
:10402000106F0023136780F3118802F1300090E8CD
:10403000F01F8CF3098802F1000004B507F0A7FC1B
:10404000BDE80440704700003844012004ED00E062
:104050001EF0040F0CBFEFF30880EFF309808169B5
:1040600011F8021C0229FFD001B507F081FC01BD47
:1040700040B2002807DB01234109034A00F01F007A
:10408000834042F82130704700E100E040B2002850
:104090000CDB01220649430900F01F008240203357
:1040A00041F82320BFF34F8FBFF36F8F704700BFDE
:1040B00000E100E0054B420953F82220012300F003
:1040C0001F0003FA00F01040704700BF00E100E05D
:1040D00040B2002801F10101ACBF00F16040064B85
:1040E0004FEA4111C9B2ABBF00F5614000F00F00CB
:1040F00080F800131954704714ED00E00B4A08B51E
:104100000B4B22F07F029A60BFF34F8FBFF36F8F8C
:10411000D3F8882022F47002C3F8882005F066F9ED
:1041200005F0E8FF00F072F805F0AAF900000000C1
:1041300000ED00E042F8203C009B0B4942F81C3C9B
:10414000019B21F0010142F8183C029B42F8081C37
:1041500042F8143C4FF0807342F8043C0023203AAC
:1041600002650367704700BFCBAB0000084B986047
:10417000036E83F30B88104681F30988002163B630
:1041800081F31188BFF36F8F0022002306F01DFD1D
:1041900038440120014910220A60704710ED00E008
:1041A00072B6404080F31188BFF36F8F01B500F005
:1041B00095FA00280AD0BFF34F8F30BF00BF00BF71
:1041C00000BF00BF00BF00BF00BF00BFBDE801408F
:1041D00062B6BFF36F8F704772B6494081F31188A2
:1041E00001B500F07BFA00280AD0BFF34F8F20BF43
:1041F00000BF00BF00BF00BF00BF00BF00BF00BFC7
:10420000BDE8014080F3118862B670470023202189
:104210000348C2180133452B82F80013F9D17047C7
:1042200000E100E001B5EFF30580A0F110004FEAD6
:10423000C0000449014409C99847BDE8014002494A
:104240000847000098E700000D3C00001FB5094C2E
:10425000094A23460121094800F0EAF800230393A4
:10426000074B0121E41A01A80193029400F0EAF837
:1042700004B010BD00000720002000206CEB0000FF
:10428000A024002010B50C7A0B6804F01F0223F064
:104290001F031A43CB68640923F01F03054943EA4F
:1042A000440343F00103C1F89800C1F89C20C1F811
:1042B000A03010BD00ED00E02DE9F04F0F46144690
:1042C00006464FF000084E4D85B0B84580F2948008
:1042D000D6F80490B9F1000F36D0B9F11F0F40F2B3
:1042E000898019F01F0F40F08580D6F800A01AF0E1
:1042F0001F0F7FD1504607F04EFB834609EB0A00A3
:10430000013807F048FB834574D11BF1160F71D0BB
:104310005C456FDDC5F898B0D5F89C10C5F898B02D
:10432000D5F8A03021F01F0143F01F0AD6E9003272
:104330001A44994202F1FF391ED1CA4508D13146CB
:104340005FFA8BF007F030FB08F101080C36BCE790
:104350003146C5F898B0D5F89C3022F01F0203F022
:104360001F031343C5F89C30E0B207F01DFB10F1AA
:10437000160F3FD0441CE7E7C5F898B0D5F8A02049
:10438000013B23F01F0302F01F021343CA453146CD
:10439000E0B2C5F8A030E8D007F006FB10F1160F28
:1043A00028D0C5F898B0D5F89C209DF808300AF1BF
:1043B000FF3A62F304038DF80830D5F8A0309DF879
:1043C00008205B0863F347128DF80820D6E9003215
:1043D0001344009323F01F03411C5344A3EB090330
:1043E000C8B223F01F030728039303D86946FFF7D9
:1043F00049FFBFE76FF01504204605B0BDE8F08F18
:1044000000ED00E00522044BC3F89420BFF34F8F6A
:10441000BFF36F8F704700BF00ED00E0BFF35F8F09
:104420000022024BC3F89420704700BF00ED00E06B
:1044300010B5034C2278FFF73FFF207010BD00BF7E
:104440009D6801202DE9F74F294D8A4606464FF019
:104450000008AB46274FD0451BDAD6F80490B9F1D7
:10446000000F3FD031680846019107F094FA019996
:10447000044609EB0100013807F08DFA84424FF041
:1044800014021D4B08D002FB08F36FF015024BF825
:10449000032003B0BDE8F08F14F1160F2C60F8D0A4
:1044A0001978A142F5DD02FB08B0C7F89840C7F8BB
:1044B0009840D7F89C4000F10801007B64F30400A9
:1044C0000871D7F8A0000C79400860F347140C710C
:1044D000D7F89C1021F01F016960D7F8A01021F0D7
:1044E0001F01296108F1010814350C36B3E700BF3C
:1044F000F437012000ED00E09D680120F0B5384D53
:1045000087B02C68082C67D80020FFF787FF354B51
:10451000354AC3F8C02084420DD1344D01A82C7017
:10452000FDF7EEFB00240646314FA6420AD1FFF705
:1045300069FF00204EE0696801EB0011FFF7A2FE61
:104540000130E8E70199200101EB0413DA683A40F1
:10455000B2F5001F22D0B2F5800F2CD0B2F5801F2B
:1045600036D15A689B680958013B22F01F0003446A
:104570000120844623F01F0340EA4C108DF8100000
:104580002878CDE902210728059321D802A9FFF751
:1045900079FE2B78013401332B70C6E75A689B688B
:1045A0000958013B22F01F0003444FF0020C012088
:1045B00023F01F03E0E75A689B680958013B22F08B
:1045C0001F0003444FF0000C022023F01F03D3E729
:1045D0006FF0150007B0F0BD4FF0FF30FAE700BFF5
:1045E00078EB000000ED00E0AAFF44009D68012088
:1045F0000000F0FF0CB410B586B009B90DF10B0046
:104600000024CDE9040109AB089A009404A90548E7
:104610000393FDF753F9049B1C7006B0BDE81040EE
:1046200002B0704767BA000007B50DF1070008F047
:1046300079FF114B98421CD14FF480620F4B104907
:10464000C3F8B8254FF40062C3F83C259DF8070075
:1046500008F063FF0B499DF8070008F059FF01209F
:104660009DF80730984003F035FE002003B05DF858
:1046700004FB6FF00B00F9E70000AD0B00A0025047
:104680002CA0025028A10250054B03EB8000D0F86B
:10469000003223F0E04343F04053C0F8003270474B
:1046A00000258450012208B50A4B0B49C3F80025A8
:1046B00002230020C1F8D036FFF7E6FF1046FFF7CF
:1046C000E3FFC1F80427C1F80429C1F8002B00203A
:1046D00008BD00BF0010005000400050052370B519
:1046E000144D154E2C780134B4FBF3F303EB830324
:1046F000E41A07F064FD114A137823B156F8243008
:10470000C01A072814D94FF05023D3F8141141B11F
:104710000021C3F81411D3F814312C700CB9012303
:1047200013702C7807F04BFD46F82400012070BD73
:104730000020FCE79F680120083801209E680120C6
:1047400048B1054B054A1B68B3FBF2F35843044BD1
:1047500043F00103184770477C21002040420F00BE
:1047600000EA000003F098BC0146014809F09BBC38
:10477000882300200149024809F0FABC443801208E
:1047800038250020020600F07F0312D5082B05D142
:10479000010700F00F0306D50E48704710F0780FA0
:1047A00012D100F00F034C2000EB43100A4B1844C9
:1047B0007047082B05D1020700F00F0306D5074804
:1047C000704710F0780FF6D000207047044800EBD7
:1047D00043107047683901201C380120883A0120B5
:1047E0008839012000220023014805F055B800BF98
:1047F0008823002013B5002201213720FFF768FC31
:104800003720FFF735FC124800F01AFE114B984292
:104810001AD10024104804F007F9104804F020FDD4
:104820004FF0FF334FF480620D490E48009405F0BD
:10483000A3F90D490B4809F0A8FB0C480C4909F0F5
:104840007AFC204602B010BD6FF00400FAE700BF0A
:10485000814A00000000AD0B2CF20000A0EB00002C
:10486000A86C05203825002021F2000044380120E2
:104870009D4B0000002310B50B49D1E8EF2F012A12
:1048800003D1C1E8E03F0028F7D10CD151F8044C26
:104890001439204606F045FD783004D12046BDE8A5
:1048A000104006F019BD10BD3C38012038B5002479
:1048B00064F07F00C0B2FFF765FF013407F0E2F853
:1048C000082CF5D100240E4DE0B2FFF75BFF036921
:1048D00003B90561013407F0D5F8082C05F140054E
:1048E000F2D1084807F0CEF8074BD3F87C2212B972
:1048F000064AC3F87C22064807F0C4F8002038BDF9
:10490000AC3E0120683901201C380120AC3A01205E
:10491000883A012010B5054CFFF764FF20B14168CB
:10492000204609F006FBF7E710BD00BFF822002083
:1049300007B5002300220E4801A904F021FE90B122
:10494000FFF7E8FF00220023094801A904F018FE40
:1049500038B90423019840600374FFF705FFFFF79F
:1049600009FF002001E00198406003B05DF804FBFE
:10497000F822002010B50446FFF7DAFF60B10022EC
:1049800004720274FFF7F0FE044B93F824301BB15D
:10499000BDE81040FFF7EEBE10BD00BF1C3801207F
:1049A000012807B50FD002280ED048B900220023F5
:1049B0000848CDE9002345F69A12002305F064FD6E
:1049C00003B05DF804FB002003B05DF804EBFFF7D3
:1049D000D1BF00BF88220020F8B587780646384648
:1049E000FFF7D0FE3B060446F57812D5002D43D1E3
:1049F000FFF79EFF034600283ED00122A5770274F0
:104A0000032202739C60FFF7AFFEBDE8F840FFF79A
:104A1000B1BE4DB1012D2FD1FFF78AFF034658B328
:104A2000657705740573EDE7FFF782FF20B3B27871
:104A3000124B12F0800F02F0080111D041B1D3F8EF
:104A4000A836E36001230374022384600373DAE76A
:104A5000142102F00F0201FB0233D3F80836F0E70D
:104A600011B1D3F8A837ECE7142102F00F0201FBD3
:104A70000233D3F80837E4E7F8BD00BF0060035005
:104A8000F0B5064689B01422002103A806F0E2FF23
:104A90003378013B052B21D8DFE803F07A031414A7
:104AA0006A16032300248DF81430FFF741FF0346F4
:104AB000A0B100F108020474DDE9050182E80300F9
:104AC00018461DE00423EDE7B7783846FFF75AFE95
:104AD000837A044623B1013B022B43D909B0F0BDD0
:104AE0003B06F57813D5002DF8D1FFF721FF0346DB
:104AF0000028F3D00122A5770274032202739C6080
:104B0000FFF732FE09B0BDE8F040FFF733BE55B104
:104B1000012DE3D1FFF70CFF03460028DED06577B7
:104B200005740573EBE7FFF703FF07460028D5D0B0
:104B30000123037402238460037304F10C01B07831
:104B400007F004F8134AE168B2F88C328B4206D9B8
:104B50005B1AA2F88C3200F0BDFF3846D0E7A2F80D
:104B60008C52FAE7304609B0BDE8F040FFF734BF99
:104B700001A800F089FF9DF80530052B04D19DF8B0
:104B8000043013F0600FA9D0034B012405938CE788
:104B900002248AE71C380120883901202DE9F043DE
:104BA0008046A54CDFF8949285B0FFF71BFE0646C1
:104BB00010B905B0BDE8F08394F82530327C3BB9DC
:104BC000002A00F0888071689C4809F0B2F9ECE78F
:104BD000042A44D8DFE812F07F000500FE0014012B
:104BE0003E01337BB568032B39D8DFE803F0023F81
:104BF0005C616F6908220021384606F02BFF904B5C
:104C00009048D3F880243A70D3F884247A70D3F88B
:104C10008824D3F88C1442EA01227A80D3F89024B5
:104C2000D3F8941442EA0122BA80D3F89824D3F836
:104C30009C34394642EA03230822FB80EA6006F0EE
:104C4000FEFE2B680021687A984797F90030002B08
:104C500008DBFB8833B1A4F88C3200F03BFF4846F8
:104C60007168B2E70023A4F88C32F8E76B7F002B61
:104C7000F5D02B7F002BF2D000274FF0FF326F775B
:104C80004FF0FF3370482F7706F00FFF6B6901A9D3
:104C900001936B68CDE90237687A00F027FC6A4817
:104CA00006F005FFDBE701212B68687A9847D6E715
:104CB000AB7A6BB9EB7F5BB963484FF0FF324FF0D3
:104CC000FF3306F0F2FE00F00BFF5F4806F0EFFE48
:104CD00002212B68E9E7327A042AC0D8DFE802F023
:104CE00055031F636F0000F077FB05460028B6D11F
:104CF00000F024FB01235549D1E8EF2F002A03D10E
:104D0000C1E8E03F0028F7D1A9D141F8085C41F89B
:104D1000105CE0691439636106F086FA9FE70025AC
:104D200065F07F00C0B2FFF72DFD037A13B1407A22
:104D300001F03CF80135082DF2D194F854311BB143
:104D400094F8550101F032F80025E8B2FFF71AFD9A
:104D5000037A13B1407A01F029F80135082DF4D116
:104D600094F874321BB194F8750201F01FF800201A
:104D700000F016FB012384F825302368002B3FF454
:104D80006EAF00210220984769E7002584F825507E
:104D900000F074FFFFF76EFD2368002B3FF45FAF58
:104DA00029460420EFE7002B3FF459AF00F01EFB2B
:104DB0002368002B3FF453AF00210520E3E722686E
:104DC000002A3FF44CAF002B3FF449AF00210620EE
:104DD000904744E708F110054FF0FF334FF0FF32E2
:104DE000284606F062FEFFF761FD284606F05FFEEA
:104DF00058F8283C002B3FF432AF00210120C2E7D5
:104E000094F874327BB1012584F8895284F8885271
:104E1000FFF78EFD38B10E4A057405738260FFF707
:104E2000A3FCFFF7A7FC58F8283C002B3FF417AF72
:104E300000210A20A7E700BF1C380120F82200202B
:104E40000060035020380120543801203C380120F4
:104E5000883A012004F0ECF900F010FF00F064FA49
:104E6000FFF758FDFFF722FD04F0DAF9014800F0E2
:104E7000E7FAF4E6814A000038B5154D95F824406C
:104E800024BB05F1380009F099F8022001F0DCF8A4
:104E900022460121E8613620FFF71AF904F0C0F933
:104EA000FFF704FD044610B9012385F82430094BAF
:104EB0001B680BB1FFF75EFC074BD3F80034DB0730
:104EC00002D50020FFF76CFD204638BD0024FBE72B
:104ED0001C380120882300200070035010B54FF0CB
:104EE000FF324FF0FF330B4806F0DFFDFFF712FDF6
:104EF00000F072FA08B100F0C1FE0024FFF7BAFC1E
:104F000004F096F9044880F82440383006F0CFFDCC
:104F1000204610BD543801201C380120074B93F85F
:104F200024203AB193F82530002B14BF00206FF0F5
:104F3000120070476FF01200704700BF1C3801204C
:104F400038B5104B044693F82430C3B10578284691
:104F5000FFF718FC10B96FF0150038BD45722379C2
:104F60008372638843602078618810F0080F02D153
:104F70004B1E0B42EFD106F0E4FD0020EDE76FF091
:104F80001200EAE71C38012038B5124B054693F8A9
:104F90002420CAB193F82530B3B1FFF7F3FB0446E0
:104FA000A8B1837A012B12D007D9023B012B07D974
:104FB00000206369E060A36138BD00F097FDF7E76A
:104FC000284600F035FDF3E76FF01200F4E76FF0CC
:104FD0001500F1E71C38012038B50E4B054693F853
:104FE000242082B193F825306BB1FFF7CBFB68B179
:104FF00015F008040AD1284600F03CFD284600F0D0
:105000000FFF204638BD6FF01200FBE76FF0150070
:10501000F8E700BF1C38012038B50C4B054693F863
:1050200024200C4662B193F825304BB1FFF7AAFB60
:1050300048B144B1284600F003FD2070002038BD7F
:105040006FF01200FBE76FF01500F8E71C38012045
:1050500070B5134E044696F82430C3B1FFF792FBA7
:105060000546B8B1230705D4204600F003FD2046CD
:1050700000F0D6FE2B7A83B901232B7296F82530E7
:105080000BB9002070BD204600F090FEF9E76FF0EC
:105090001200F7E76FF01500F4E76FF07700F1E723
:1050A0001C3801202DE9F043DFF8E4801E4698F813
:1050B000243007468946154685B0002B61D098F804
:1050C0002530002B5DD003065ED5FFF75BFB044661
:1050D000002859D0037A002B56D04FF0FF334FF001
:1050E000FF3208F1380006F0E0FCA37F4BB108F175
:1050F000380006F0DCFC6FF00A04204605B0BDE87D
:10510000F083A37AC5B13BB301234FF00008A37726
:10511000384601A9CDE90195CDF80C8000F0E6F9FB
:105120001C4B984229D084F81E801EBB6FF00404EB
:10513000194806F0BCFCE0E7E27F02B1E577002BFE
:10514000E2D100F0D9FCB842DED000F0C9FC124830
:1051500006F0ADFC0024D0E7B8F80A30AB42F0D935
:105160006268B5FBF2F302FB1353002BE9D1012374
:10517000E377E6E7C6F80080D8E706B1356000249B
:10518000D6E76FF01204B8E76FF01504B5E700BF7B
:105190001C3801200000AD0B543801202DE9F041EE
:1051A0001D46204B174693F824200E46002A33D084
:1051B00093F8253083B3030631D401B97FBBFFF7E1
:1051C000E1FA044658B3037A4BB34FF0FF334FF084
:1051D000FF32154806F069FCE368B8469F4228BFD5
:1051E000984646B93FB905B12B600F4806F05FFC01
:1051F0000020BDE8F08142463046A16906F01FFC60
:10520000A3694344A361E368A3EB0803E360002DB3
:10521000EBD0C5F80080E8E76FF01200E9E76FF027
:105220001500E6E71C3801205438012070B51E4DEA
:10523000034695F8242082B395F825206AB31B060F
:105240002ED4FFF79FFA044650B3037A43B34FF0CE
:10525000FF334FF0FF3205F1380006F026FCE3681B
:10526000B3B9012663692677A361637F83B1FFF732
:105270005FFB30B905F1380006F019FC6FF00B0048
:1052800070BD067484600673FFF76EFAFFF772FA5A
:10529000064806F00CFC0020F2E76FF01200EFE782
:1052A0006FF01500ECE700BF1C38012054380120D6
:1052B00010B5084B0C4693F824302BB1FFF762FA77
:1052C00028B10460002010BD6FF01200FBE76FF002
:1052D0001500F8E71C380120014B1860704700BF2B
:1052E0001C38012008B5074B93F8243023B1FFF791
:1052F00049FA20B1406808BD6FF01200FBE76FF07B
:105300001500F8E71C380120064B10F0800FA3F1C0
:10531000D80208BF1346182200F00F0002FB00302D
:10532000704700BFC44101200023024A1360024AB3
:1053300013707047A4420120A46801204FF400625A
:10534000114BC3F800240122C3F80025D3F8002430
:105350001205FBD54FF40062C3F800248022C3F885
:105360001C250122C3F8302540F2FF12074B1A60BA
:105370000023074A1360074A1370074A137002227A
:10538000064B1A70704700BF00600350A042012016
:105390009C420120A0680120A2680120A46801208D
:1053A0000022094B10B51A70084A094B094C002815
:1053B00008BF13463620C4F80033FEF759FE012318
:1053C000C4F8043510BD00BFA3680120FDFFDF0154
:1053D000FDFFFF0100600350034B1878012894BFC4
:1053E00000200120704700BFA468012010B54FF0D5
:1053F0002003EFF3118183F31288BFF36F8F0E4BFD
:105400001B7803F0FF0083B10C4BD3F8002412F497
:1054100000720AD10124C3F82C45D3F82C45D3F8E7
:105420000044A40502D5C3F82C25002081F311887F
:10543000BFF36F8F10BD00BFA36801200060035051
:10544000F8B51C4B1C7894BB1B4A40F2FF17106048
:10545000012226461A7064F07F0514F0080FEDB2A1
:1054600014BF39464021284606F06BFB2846FFF75B
:105470004BFF0134092C867506730661EBD10024BD
:1054800040F2FF17254614F0080FE6B214BF394664
:105490004021304606F055FB3046FFF735FF01341A
:1054A000092C857505730561EDD10448F8BD0448E4
:1054B000FCE700BFA4680120A44201200000AD0B5E
:1054C0000500AD0B084B10F0800F14BFD3F810256A
:1054D000D3F81425012300F00F018B40134214BFB1
:1054E00001200020704700BF0060035002462DE9F4
:1054F000F8434FF02003EFF3118783F31288BFF3D3
:105500006F8F030703D1194B1B7883422AD1184BA5
:1055100010461C684FF00109E44306F00AFB154EE3
:10552000A4B2356809FA00F82C4314EA08041BD128
:105530001046FFF7E9FE034680F80C9007C983E8A0
:1055400007004FF480021C619C750B4B45EA08056F
:105550000A483560C3F8042187F31188BFF36F8FC1
:10556000BDE8F8830648F7E70648F5E7A26801209A
:10557000A04201209C42012000E100E00000AD0BB0
:105580000A00AD0B0B00AD0B10F0080F074B06D057
:10559000D3F8C00410F4803F18BF0020704700F01B
:1055A0000F0000F5947053F820007047006003501E
:1055B0002DE9F74FA74BD3F8604134B10022C3F86F
:1055C0006021D3F86C44C3F86C44D3F828214AB165
:1055D0000022C3F82821A04B187806F0AAFA01236C
:1055E00083401C439D4F9E4E3D7897F9008015F0F7
:1055F000080141D1B8F1000F05F00F032CDA994AE8
:1056000052F8230010B342F823101422534303F13D
:10561000A04303F55833D3F80836934A03F0010347
:1056200011784B401370914804F06AF92846FFF74F
:105630006BFE837D032B37D1284606F07AFA0123CF
:1056400003FA00F0336823EA000333600125DFF832
:105650002092DFF820825FE0874A52F8230000287A
:10566000F4D042F823101422534303F1A04303F56E
:105670005833D3F80837D0E7B8F1000F754B09DB82
:10568000D3F85021002AE1D00022C3F85021D3F8EA
:10569000A837C2E7D3F82C21002AD7D00022C3F8BC
:1056A0002C21D3F8A836B8E7037BDBB9284606F0EF
:1056B00040FA012303FA00F03368B8F1000F23EA3F
:1056C0000003336001DA882DC0D106238DF8043041
:1056D00000238DF80730674B8DF806501B6801A832
:1056E0009847B3E7002DB1D101225A4BDA64ADE7F8
:1056F00094FAA4F0B0FA80F0D9F8002005FA00F38B
:105700001A430F28C9F8002024EA0304326840F342
:10571000B780134200F0C580002CE9D14D4BD3F87F
:1057200000215AB1C3F80041544B01A81C704A4BE8
:105730001C70012301934F4B1B689847454BD3F8CE
:105740005421EAB10022C3F85421D3F8041389028A
:1057500016D58DF80420D3F8202501A8ADF8062031
:10576000D3F8C034002B14BF4FF001224FF48072E5
:10577000D9F800301343C9F800303E4B1B689847F6
:10578000344BD3F85821002A2ED00022C3F85821D8
:10579000D3F80044C3F80044E30508D50122374B91
:1057A00001A81A7002230193324B1B689847A50584
:1057B00008D50022314B01A81A70032301932D4B09
:1057C0001B68984760050FD52C4B1A7862B10022F0
:1057D0001A7001221F4B01A8C3F808259A650423FB
:1057E0000193244B1B6898471A4BD3F85C310BB3D9
:1057F0001E4B9B6813B93B7859061BD00022154BF2
:1058000001A8C3F85C21D3F88034134A23F07F0346
:105810001370336823F001133360D9F8003023F498
:10582000803343F00103C9F8003005230193114B85
:105830001B6898473268D9F800301A4207D0002216
:1058400000230A4804F080F8002800F09F8003B08D
:10585000BDE8F08F00600350A2680120A16801201C
:105860009C42012008610350A06801207823002099
:10587000A0420120A442012030610350A36801200E
:1058800013407FF449AF062260F07F018DF80420B9
:105890008DF806108DF80730D8F8003001A8984729
:1058A0003AE70623A0F110018DF804308DF80610B8
:1058B0008DF80750F0E718F0012314BF93FAA3F80E
:1058C00098FAA8F8B8FA88F8B8F10F0F18D9A8F123
:1058D0001005EDB22846FFF717FD04462846FFF7EE
:1058E00053FE6368B4F814C09842226830D81B1A7B
:1058F00000EB020E114682466360C4F800E02AE025
:1059000048F080052846FFF7FFFC4368B0F814A074
:1059100001689A4528BF9A4601F06043B3F1005FE1
:10592000044604D052463E4806F089F83C492268B5
:10593000636852442260A268A3EB0A03D20768B2EC
:10594000636033D5BAF1000F32D1002323732FE007
:1059500011464FF0000A604525D1003B18BF0123D6
:105960001AB3504521D9012303FA08F32BEA0303A4
:105970003360062302228DF804302A4BA2751B687F
:105980008DF806508DF8072001A89847D6F800B08A
:10599000D9F800301BEA03088DD1234803B0BDE8D5
:1059A000F04F03F0ADBF0023DAE768B2002BCCD094
:1059B0000122D9F8003002FA08F823EA0803C9F8EE
:1059C0000030236915F0080F534423613D70174BD5
:1059D00017D100284FF0140005F00F0500FB05302B
:1059E000B5BF03EB85030A35C0F80016C0F80017F1
:1059F000B5BFC0F804A6C0F804A75A6043F8252034
:105A000025E70028B5BFC3F8A016C3F8A017C3F850
:105A1000A4A6C3F8A4A7B4BF5A629A6417E700BF4C
:105A2000AC400120A44201207823002000600350F4
:105A3000024B40F48070C3F81805704700600350B3
:105A4000030713D400F00F0310F0800F084A0BBFB8
:105A500003F5887303F5847302EB830252F8230085
:105A600008BF5068003818BF0120704700207047F9
:105A700000600350034BC3F80C0540F48070C3F87A
:105A80000C0570470060035010B504460822002141
:105A900005F0E0FF0E4BD3F880242270D3F8842465
:105AA0006270D3F88824D3F88C1442EA0122628011
:105AB000D3F89024D3F8941442EA0122A280D3F8B8
:105AC0009824D3F89C3442EA0323E38010BD00BF3E
:105AD000006003500122014BDA64704700600350FC
